:100000000C94B5000C94D2000C94D2000C94D20045
:100010000C94D2000C94D2000C94D2000C942F02B9
:100020000C94D2000C94D2000C94D2000C94D20008
:100030000C94D2000C94D2000C9499020C94D2002F
:100040000C94D2000C94D2000C94D2000C94D200E8
:100050000C94D2000C94D2000C94D2000C94D200D8
:100060000C94D2000C94D2006E616E00696E660032
:1000700000407A10F35A00A0724E18090010A5D45F
:10008000E80000E87648170000E40B54020000CABC
:100090009A3B000000E1F505000080969800000002
:1000A00040420F000000A086010000001027000061
:1000B0000000E803000000006400000000000A00E7
:1000C000000000000100000000002C76D888DC67EA
:1000D0004F0823DFC1DFAE59E1B1B796E5E3E45342
:1000E000C63AE651997696E8E6C28426EB898C9B5F
:1000F00062ED407C6FFCEFBC9C9F40F2BAA56FA5FF
:10010000F490055A2AF75C936B6CF9676DC11BFC80
:10011000E0E40D47FEF520E6B500D0ED902E03009B
:10012000943577050080841E080000204E0A0000E8
:1001300000C80C333333330F986E12831141EF8DA7
:100140002114893BE65516CFFEE6DB18D1844B38E7
:100150001BF77C1D901DA4BBE424203284725E2218
:100160008100C9F124ECA1E53D2711241FBECFEF8A
:10017000D8E0DEBFCDBF11E0A0E0B1E0E2E1FCE1FC
:1001800002C005900D92A630B107D9F711E0A6E0A4
:10019000B1E001C01D92AA33B107E1F70E94D4007B
:1001A0000C94070E0C940000CF92DF92EF92FF9216
:1001B0000F931F930E94FF010E94360380E090E09E
:1001C00060E070E00E94010368E873E180E090E085
:1001D00044E853E028EB3BE004E610E0F8EBEF2EB8
:1001E000FBE0FF2EE0EDCE2EE7E0DE2E0E94FD04C8
:1001F00080E090E060E070E00E94ED0180E090E03F
:1002000060E070E00E942203FFCF6F927F928F9296
:100210009F92AF92BF92CF92DF92EF92FF920F9395
:100220001F93CF93DF93EC018A859B85892B09F07F
:10023000BEC06C817D818E819F812C853D854E85E0
:100240005F850E94390B18160CF053C08889998974
:100250000196998B888B6C807D808E809F806C81CD
:100260007D818E819F81E888F98820E030E040E040
:1002700050EC0E943D0B5B016C010027F7FC0095E0
:10028000102FC801B7010E94890A20E030E040E841
:1002900050E40E943D0B20E030E040E85FE30E9424
:1002A00086099B01AC01C601B5010E94EE099B01C4
:1002B000AC01C401B3010E9486096C837D838E83E7
:1002C0009F836C817D818E819F812C853D854E85AC
:1002D0005F850E94EA09882364F48C859D85AE853C
:1002E000BF858C839D83AE83BF8381E090E09B8735
:1002F0008A876C817D818E819F812C853D854E858D
:100300005F850E94EA0988230CF051C08889998989
:100310000197998B888B6C807D808E809F802C814B
:100320003D814E815F81E888F988CA01B9010E9448
:1003300086095B016C010027F7FC0095102FC801AE
:10034000B7010E94890A20E030E040E850E40E94B2
:100350003D0B20E030E040E85FE30E9486099B010E
:10036000AC01C601B5010E94EE099B01AC01C401BC
:10037000B3010E9486096C837D838E839F836C8189
:100380007D818E819F812C853D854E855F850E9474
:10039000390B181664F48C859D85AE85BF858C83DA
:1003A0009D83AE83BF8381E090E09B878A876C81C9
:1003B0007D818E819F810E94560ACB01DF91CF9172
:1003C0001F910F91FF90EF90DF90CF90BF90AF9073
:1003D0009F908F907F906F900895019711F45E9891
:1003E00005C06115710511F45E9A07C06130710591
:1003F00011F45F980895672B09F45F9A08958AB104
:100400008C618AB984B1836084B992E094BD909381
:10041000B00081E087BD8093B30090936E0090930D
:10042000700018BC1092B400789480E090E060E016
:1004300070E00E94ED010895FC01208181E090E0D0
:1004400002C0880F991F6A95E2F7282B208395E355
:100450009A95F1F7208180958223808308951F92D9
:100460000F920FB60F9211242F933F934F935F93E8
:100470006F937F938F939F93AF93BF93EF93FF936C
:100480008FEF8093B30080910E0190910F01892B23
:1004900001F58BE290E064E00E941C02809106016D
:1004A00090910701A0910801B09109010196A11D49
:1004B000B11D8093060190930701A0930801B093AA
:1004C000090186E091E00E94050190930F0180935D
:1004D0000E0180910E0190910F018F3F910509F05F
:1004E0004CF480910E0190910F0110920F01109227
:1004F0000E010CC080910E0190910F018F5F904012
:1005000090930F0180930E018FEF90E08093B300E2
:10051000FF91EF91BF91AF919F918F917F916F91DB
:100520005F914F913F912F910F900FBE0F901F90B1
:1005300018951F920F920FB60F9211242F933F938D
:100540004F935F936F937F938F939F93AF93BF93DB
:10055000EF93FF938FEF87BD809120019091210150
:10056000892B01F58BE290E062E00E941C028091F1
:10057000180190911901A0911A01B0911B010196E7
:10058000A11DB11D8093180190931901A0931A0128
:10059000B0931B0188E191E00E9405019093210135
:1005A0008093200180912001909121018F3F91053E
:1005B00009F04CF4809120019091210110922101C9
:1005C000109220010CC080912001909121018F5F39
:1005D000904090932101809320018FEF90E087BDA0
:1005E000FF91EF91BF91AF919F918F917F916F910B
:1005F0005F914F913F912F910F900FBE0F901F90E1
:100600001895892B11F0289801C0289A672B11F0B2
:10061000299A089529980895FC01808591858F3F36
:10062000910509F02CF4208531851186108608C0CB
:10063000808591858F5F9040918780872FEF30E094
:10064000C9010895892B19F085B5836002C085B56D
:100650008C7F85BD672B21F08091B100846003C041
:100660008091B1008B7F8093B10008951092C500F6
:1006700087E68093C40088E18093C10086E0809380
:10068000C20008958091C00087FFFCCF8091C60012
:100690000895982F8091C00085FFFCCF9093C600ED
:1006A0000895FC0107C08091C00085FFFCCF9093A6
:1006B000C600319690819923B1F708950E945103A5
:1006C00008950F931F932DB73EB7285030400FB6B3
:1006D000F8943EBF0FBE2DBFEDB7FEB731960AE2CC
:1006E00011E0ADB7BEB712961C930E93119720E0A0
:1006F00031E03383228364837583868397830E94EA
:10070000850D2DB73EB7285F3F4F0FB6F8943EBF1B
:100710000FBE2DBFC8010E9451031F910F91089574
:100720000F931F932DB73EB7285030400FB6F89463
:100730003EBF0FBE2DBFEDB7FEB731960AE211E006
:10074000ADB7BEB712961C930E93119720E031E01F
:100750003383228364837583868397830E94850D08
:100760002DB73EB7285F3F4F0FB6F8943EBF0FBE80
:100770002DBFC8010E94510383E091E00E94510304
:100780001F910F910895CF92DF92EF92FF920F93F6
:100790001F93CF93DF93EC018B01CA0169014A30AB
:1007A00051054CF480E090E6AAEEB5E48C879D8775
:1007B000AE87BF8713C09C01442737FD4095542F57
:1007C00060E970ED83E090E00E94F70BCA01B90187
:1007D0000E94890A6C877D878E879F871B861A8671
:1007E000B801882777FD8095982F0E94890A9B0180
:1007F000AC010E943D0B7B018C01B601882777FD7F
:100800008095982F0E94890A9B01AC010E9486095D
:100810009B01AC01C801B7010E94EE090E94560A73
:10082000798B688BDF91CF911F910F91FF90EF90A3
:10083000DF90CF900895FC018285938520E030E021
:10084000892B11F421E030E0C90108952F923F92E5
:100850004F925F926F927F928F929F92AF92BF92D0
:10086000CF92DF92EF92FF920F931F93DF93CF937C
:1008700000D000D0CDB7DEB71C013B017A01590191
:100880000027F7FC0095102F60E970ED83E090E001
:10089000A80197010E94F70BCA01B9010E94890AB9
:1008A000F1016487758786879787118A108ACC241F
:1008B000B7FCC094DC2CC601B5010E94890A5B011B
:1008C0006C0160E070E080E090E4A60195010E9478
:1008D000EE090E94A40B20E03AE045E258E40E94B1
:1008E0003D0BF1016483758386839783882477FCAD
:1008F0008094982CC401B3010E94890A9B01AC0129
:100900000E943D0B7B018C01C601B501A60195013A
:100910000E9486099B01AC01C801B7010E94EE0943
:1009200069837A838B839C834424552440C0F101DE
:10093000808991890196918B808B648075808680F7
:1009400097806481758186819781E088F18820E0B5
:1009500030E040E050EC0E943D0B5B016C01002751
:10096000F7FC0095102FC801B7010E94890A20E00A
:1009700030E040E850E40E943D0B20E030E040E8E9
:100980005FE30E9486099B01AC01C601B5010E948C
:10099000EE099B01AC01C401B3010E948609F1017B
:1009A00064837583868397830894411C511CB2012C
:1009B000882777FD8095982F0E94890A29813A819E
:1009C0004B815C810E94EA0987FDB1CF0F900F90A7
:1009D0000F900F90CF91DF911F910F91FF90EF90AB
:1009E000DF90CF90BF90AF909F908F907F906F904F
:1009F0005F904F903F902F9008952F923F924F928B
:100A00005F926F927F928F929F92AF92BF92CF929E
:100A1000DF92EF92FF920F931F93DF93CF93CDB7A7
:100A2000DEB72A970FB6F894DEBF0FBECDBF69833D
:100A30007A838B839C835A013A8729871E830D838F
:100A4000D886CF8288E191E0BA01A90197010E947E
:100A5000260486E091E0B50149855A8597010E94F8
:100A6000260481E090E061E070E00E94220381E0D2
:100A700090E061E070E00E94ED0180912201909190
:100A80002301892BD1F339C06091180170911901AC
:100A900080911A0190911B010E94890AA60195017B
:100AA0000E9486097B018C0169817A818B819C81FE
:100AB0000E94890A9B01AC01C801B7010E94EA09A2
:100AC00087FDE2CF88E191E069857A854D815E817D
:100AD0002F8138850E94C30386E091E069857A857D
:100AE0004D815E812F8138850E94C3038091220150
:100AF00090912301892BD1F356C029853A85B901FC
:100B0000882777FD8095982F0E94890A7B018C01A8
:100B1000EF81F885BF01882777FD8095982F0E9487
:100B2000890A5B016C012D813E81B901882777FD1F
:100B30008095982F0E94890A3B014C01C801B7019A
:100B4000A80197010E943D0B7B018C01C601B501F4
:100B5000A60195010E9486099B01AC01C801B7015D
:100B60000E94EE091B012C01C401B301A4019301F1
:100B70000E943D0B7B018C01C601B50120E030E0F5
:100B800040E050EC0E943D0B9B01AC01C801B70155
:100B90000E94EE099B01AC01C201B1010E948609CD
:100BA0005B016C0171CF80E090E060E070E00E943A
:100BB0002203609118017091190180911A0190919E
:100BC0001B010E94890A0E9490032A960FB6F8948E
:100BD000DEBF0FBECDBFCF91DF911F910F91FF9070
:100BE000EF90DF90CF90BF90AF909F908F907F90CD
:100BF0006F905F904F903F902F900895A1E1B0E0EB
:100C0000E4E0F6E00C94120C3C017F876E876A01E9
:100C1000FC0117821682838181FD03C06FEF7FEF95
:100C20006FC39E012F5F3F4F398B288BF3012381C8
:100C3000EE85FF8523FD859123FF8191FF87EE8758
:100C4000882309F45AC3853251F4EE85FF8523FDCC
:100C5000859123FF8191FF87EE87853229F490E00B
:100C6000B3010E94590DE2CF982F10E088249924F7
:100C70001032B0F49B3269F09C3228F4903251F07B
:100C8000933271F40BC09D3239F0903349F4116006
:100C900028C01260146025C0186023C0106121C0F4
:100CA00017FD2AC0892F80538A3078F416FF06C0BA
:100CB000FAE09F9E902C1124980E13C03AE0839E78
:100CC000802C1124880E10620CC09E3221F416FD77
:100CD00014C3106406C09C3611F4106802C0983624
:100CE00059F4EE85FF8523FD959123FF9191FF87B0
:100CF000EE87992309F0BCCF892F8554833020F4E7
:100D0000812F8061905E07C0892F8556833008F05F
:100D10009FC1812F8F7E86FD02C076E0972E6FE304
:100D2000F62EF822953619F4F0E4FF2A07C096361D
:100D300019F420E8F22A02C091109A94F7FE0AC032
:100D40003BE3391518F45CE3B52E02C0B92CB3941B
:100D500027E009C047E0491520F4BB2447E0942E62
:100D6000F7CF292DBB24C60104969D878C87F601F9
:100D70006081718182819381AE014F5F5F4F0B2D46
:100D80000E946B0C6C010981202E332400FF04C0EB
:100D900003FD02C01DE209C0F1FE02C01BE205C056
:100DA000F2FC02C010E001C010E2C1018C70907032
:100DB000892BB9F1112311F483E001C084E0881577
:100DC00010F088240AC0881AF3FC07C080E290E083
:100DD000B3010E94590D8A94C9F7112329F0812F7C
:100DE00090E0B3010E94590D23FE03C008E610E015
:100DF0000EC00CE610E00BC0E114F10409F08052C3
:100E000090E0B3010E94590D0F5F1F4F05C0EF2CFA
:100E1000FF24F0E1EF22FF24F8018491882361F799
:100E200014C1F7FE12C0BC0C24FE04C08A818133B9
:100E300009F4BA941B141CF0BB24B3942DC0F8E041
:100E4000FB1550F538E0B32E27C0F6FC25C0892DE0
:100E500090E08C159D054CF02CEFC2162FEFD206BA
:100E600024F030E8F32A01C09A94992049F0E2E096
:100E7000F0E0EC0FFD1FE90DF11D80818033A1F33F
:100E8000F7FE0AC0B92CB394892D90E0C816D90694
:100E900014F0992401C09C18F7FC03C025E030E051
:100EA00009C01C141D041CF021E030E003C09601B1
:100EB0002F5F3F4F112311F02F5F3F4F992029F0F3
:100EC000892D90E00196280F391F882D90E0281772
:100ED000390714F0882401C0821A4F2C5524C2010E
:100EE00089709070892B39F008C080E290E0B301DE
:100EF0000E94590D8A948820C1F7112329F0812F6F
:100F000090E0B3010E94590D43FE07C008C080E382
:100F100090E0B3010E94590D8A948820C1F7F7FE32
:100F200046C08601D7FE02C000E010E076010894BA
:100F3000E11CF11CE01AF10A41E050E04C0F5D1F8A
:100F4000E40EF51E26014B185108892D90E0AA24C5
:100F5000BB24A81AB90A5FEF0F3F150729F48EE2E8
:100F600090E0B3010E94590DC016D10634F040162E
:100F700051061CF4F701808101C080E3015010404C
:100F80000894E11CF11C0A151B052CF090E0B3013C
:100F90000E94590DE0CF0C151D0539F49A81963346
:100FA00018F4953311F424FE81E390E04BC08A815C
:100FB000813309F00F7E90E0B3010E94590D992012
:100FC000A1F08EE290E0B3010E94590D12E0E1E041
:100FD000F0E0EC0FFD1FE10FF11D1F5F808190E03D
:100FE000B3010E94590D9A9491F744FC03C085E621
:100FF00090E002C085E490E0B3010E94590DD7FC57
:1010000005C0C114D10441F404FF06C0D094C194BA
:10101000D108D3948DE201C08BE290E0B3010E942D
:10102000590D80E305C08F5F26EF3FEFC20ED31E40
:101030003AE0C316D104BCF790E0B3010E94590D09
:10104000C601C096B3010E94590DCC84DD8452C103
:10105000933631F0933799F0933509F059C023C096
:10106000F601808189835E010894A11CB11C22E0F5
:1010700030E0C20ED31E21E0E22EF12C12C0F601A8
:10108000A080B18016FD03C06FEF7FEF02C0692D15
:1010900070E022E030E0C20ED31EC5010E944E0D6A
:1010A0007C011F7713C0F601A080B18016FD03C03C
:1010B0006FEF7FEF02C0692D70E022E030E0C20EDA
:1010C000D31EC5010E94430D7C01106813FF07C0A9
:1010D0001BC080E290E0B3010E94590D8A94882DD4
:1010E00090E0E816F906A8F30FC0F50117FD859109
:1010F00017FF81915F0190E0B3010E94590D8110AB
:101100008A940894E108F108E114F10471F7F2C03F
:10111000943611F0993689F517FF08C0F601208141
:1011200031814281538184E090E00AC0F6018081E0
:1011300091819C01442737FD4095542F82E090E037
:10114000C80ED91E9FE6F92EF12257FF09C050950F
:101150004095309521953F4F4F4F5F4F90E8F92ACA
:10116000CA01B901AE014F5F5F4F2AE030E00E9433
:10117000A90DE82EE889EE1A41C0953721F41F7EAB
:101180002AE030E01CC0197F9F3661F0903720F4D0
:10119000983509F0B2C00FC0903739F0983709F090
:1011A000ACC004C028E030E00AC0106114FD146037
:1011B00020E130E004C014FD166020E132E017FFAA
:1011C00008C0F601608171818281938144E050E022
:1011D00008C0F60180819181BC0180E090E042E08E
:1011E00050E0C40ED51EAE014F5F5F4F0E94A90DA7
:1011F000E82E5889E51A8FE7F82EF122F6FE0BC08B
:101200008EEFF822E91438F4F4FE07C0F2FC05C0B2
:101210009FEEF92202C01E2D01C0192DF4FE0DC053
:10122000FE01EE0DF11D8081803319F4E9EEFE22FE
:1012300008C01F5FF2FE05C003C08F2D867809F03D
:101240001F5F0F2DF3FC14C0F0FE0FC0181510F037
:101250009E2C0BC09E2C980C911A182D06C080E273
:1012600090E0B3010E94590D1F5F1815C0F304C030
:10127000181510F4811A01C0882404FF0FC080E300
:1012800090E0B3010E94590D02FF1DC001FD03C093
:1012900088E790E00EC088E590E00BC0802F86784C
:1012A00091F001FF02C08BE201C080E2F7FC8DE209
:1012B00090E0B3010E94590D06C080E390E0B301B5
:1012C0000E94590D9A94E914C0F3EA94E1E0F0E029
:1012D000EC0FFD1FEE0DF11D808190E0B3010E9427
:1012E000590DEE2091F706C080E290E0B3010E9414
:1012F000590D8A948820C1F799CCF30166817781D2
:10130000CB016196E2E10C942E0C5058BB27AA2722
:101310000ED075C166D130F06BD120F031F49F3F13
:1013200011F41EF45BC10EF4E095E7FB51C1E92F07
:1013300077D180F3BA17620773078407950718F00F
:1013400071F49EF58FC10EF4E0950B2EBA2FA02DEF
:101350000B01B90190010C01CA01A0011124FF2762
:10136000591B99F0593F50F4503E68F11A16F0405D
:10137000A22F232F342F4427585FF3CF469537955C
:101380002795A795F0405395C9F77EF41F16BA0B21
:10139000620B730B840BBAF09150A1F0FF0FBB1FCF
:1013A000661F771F881FC2F70EC0BA0F621F731F18
:1013B000841F48F4879577956795B795F7959E3F75
:1013C00008F0B3CF9395880F08F09927EE0F979503
:1013D00087950895D9D008F481E008950CD00FC105
:1013E00007D140F0FED030F021F45F3F19F0F0C09B
:1013F000511139C1F3C014D198F39923C9F355237E
:10140000B1F3951B550BBB27AA27621773078407F7
:1014100038F09F5F5F4F220F331F441FAA1FA9F3AD
:1014200033D00E2E3AF0E0E830D091505040E6959F
:10143000001CCAF729D0FE2F27D0660F771F881F00
:10144000BB1F261737074807AB07B0E809F0BB0BEF
:10145000802DBF01FF2793585F4F2AF09E3F510513
:1014600068F0B6C000C15F3FECF3983EDCF38695B0
:1014700077956795B795F7959F5FC9F7880F911D89
:101480009695879597F90895E1E0660F771F881F75
:10149000BB1F621773078407BA0720F0621B730B28
:1014A000840BBA0BEE1F88F7E095089504D068947A
:1014B000B111D9C00895BCD088F09F5790F0B92FD2
:1014C0009927B751A0F0D1F0660F771F881F991F99
:1014D0001AF0BA95C9F712C0B13081F0C3D0B1E0AB
:1014E0000895C0C0672F782F8827B85F39F0B93FBB
:1014F000CCF3869577956795B395D9F73EF490959B
:101500008095709561957F4F8F4F9F4F0895E89418
:1015100009C097FB3EF490958095709561957F4F3B
:101520008F4F9F4F9923A9F0F92F96E9BB279395E9
:10153000F695879577956795B795F111F8CFFAF4F9
:10154000BB0F11F460FF1BC06F5F7F4F8F4F9F4F2A
:1015500016C0882311F096E911C0772321F09EE888
:10156000872F762F05C0662371F096E8862F70E0EE
:1015700060E02AF09A95660F771F881FDAF7880FC8
:101580009695879597F90895990F0008550FAA0B1E
:10159000E0E8FEEF16161706E807F907C0F0121686
:1015A0001306E407F50798F0621B730B840B950B89
:1015B00039F40A2661F0232B242B252B21F40895DE
:1015C0000A2609F4A140A6958FEF811D811D08957B
:1015D00097F99F6780E870E060E008959FEF80ECE6
:1015E000089500240A941616170618060906089589
:1015F00000240A9412161306140605060895092EEF
:101600000394000C11F4882352F0BB0F40F4BF2B5D
:1016100011F460FF04C06F5F7F4F8F4F9F4F08959D
:1016200057FD9058440F551F59F05F3F71F0479593
:10163000880F97FB991F61F09F3F79F08795089578
:10164000121613061406551FF2CF4695F1DF08C097
:10165000161617061806991FF1CF869571056105B4
:1016600008940895E894BB2766277727CB0197F95C
:1016700008958ADF08F48FEF08950BD0C0CFB1DF53
:1016800028F0B6DF18F0952309F0A2CFA7CF1124D8
:10169000EACFC6DFA0F3959FD1F3950F50E0551F19
:1016A000629FF001729FBB27F00DB11D639FAA27B7
:1016B000F00DB11DAA1F649F6627B00DA11D661F06
:1016C000829F2227B00DA11D621F739FB00DA11D27
:1016D000621F839FA00D611D221F749F3327A00DE1
:1016E000611D231F849F600D211D822F762F6A2F7D
:1016F00011249F5750408AF0E1F088234AF0EE0F02
:10170000FF1FBB1F661F771F881F91505040A9F70E
:101710009E3F510570F05CCFA6CF5F3FECF3983E43
:10172000DCF3869577956795B795F795E7959F5F75
:10173000C1F7FE2B880F911D9695879597F908950F
:1017400011F40EF44BCF3EC073DFD0F39923D9F3DD
:10175000CEF39F57550B87FF43D00024A0E640EA05
:10176000900180585695979528F4805C660F771FF6
:10177000881F20F026173707480730F4621B730BC9
:10178000840B202931294A2BA695179407942025EC
:1017900031254A2758F7660F771F881F20F0261734
:1017A0003707480730F4620B730B840B200D311D93
:1017B000411DA09581F7B901842F9158880F969506
:1017C000879508959F3F31F0915020F48795779544
:1017D0006795B795880F911D9695879597F9089508
:1017E00091505040660F771F881FD2F7089597FBDE
:1017F000092E05260ED057FD04D04BD00AD0001C70
:1018000038F450954095309521953F4F4F4F5F4F9D
:101810000895F6F790958095709561957F4F8F4F5D
:101820009F4F08952F923F924F925F926F927F92B7
:101830008F929F92AF92BF92CF92DF92EF92FF92E0
:101840000F931F93CF93DF93CDB7DEB7CA1BDB0B8C
:101850000FB6F894DEBF0FBECDBF09942A88398831
:1018600048885F846E847D848C849B84AA84B98438
:10187000C884DF80EE80FD800C811B81AA81B98144
:10188000CE0FD11D0FB6F894DEBF0FBECDBFED0158
:101890000895A1E21A2EAA1BBB1BFD010DC0AA1FB1
:1018A000BB1FEE1FFF1FA217B307E407F50720F0C9
:1018B000A21BB30BE40BF50B661F771F881F991F44
:1018C0001A9469F760957095809590959B01AC018D
:1018D000BD01CF010895283008F027E03327DA0151
:1018E000990F311D87FD916000966105710539F4EE
:1018F00032602E5F3D9330E32A95E1F708959F3FD4
:1019000030F080387105610509F03C5F3C5F3D9324
:10191000913008F08068911DDF93CF931F930F9350
:10192000FF92EF92192F987F9695E92F96959695AD
:10193000E90FFF27E653FF4F99273327EE24FF24B3
:10194000A701E70105900894079428F4360FE71ED5
:10195000F81E491F511D660F771F881F991F069497
:10196000A1F70590079428F4E70EF81E491F561FAB
:10197000C11D770F881F991F661F0694A1F7059058
:10198000079428F4F80E491F561FC71FD11D880F52
:10199000991F661F771F0694A1F70590079420F4FE
:1019A000490F561FC71FD81F990F661F771F881F23
:1019B0000694A9F784911095177041F0D695C795B4
:1019C00057954795F794E7941A95C1F7E0E7F0E04B
:1019D00068941590159135916591959105907FE2E8
:1019E0007395E118F10A430B560BC90BD009C0F7E8
:1019F000E10CF11E431F561FC91FD01D7EF470332A
:101A000011F48A95E6CFE894015030F0080F0AF4FB
:101A10000027021708F4202F2395022F7A3328F08D
:101A200079E37D932A95E9F710C07D932A9589F68D
:101A3000069497956795379517951794E118F10ACD
:101A4000430B560BC90BD00998F023957E917395E3
:101A50007A3308F070E37C932013B8F77E917061BD
:101A60007D9330F0839571E37D9370E32A95E1F7E0
:101A70001124EF90FF900F911F91CF91DF91992743
:101A800087FD90950895FC0105906150704001100C
:101A9000D8F7809590958E0F9F1F0895FC01615097
:101AA000704001900110D8F7809590958E0F9F1F80
:101AB00008950F931F93CF93DF938C01EB018B81DC
:101AC00081FF1BC082FF0DC02E813F818C819D81D3
:101AD0002817390764F4E881F9810193F983E883D1
:101AE00006C0E885F985802F0995892B31F48E8110
:101AF0009F8101969F838E8302C00FEF1FEFC80165
:101B0000DF91CF911F910F910895AEE0B0E0EBE827
:101B1000FDE00C94200C0D891E8986E08C831A83CD
:101B200009838FEF9FE79E838D839E01275E3F4F42
:101B3000CE0101966F89788DA9010E94FE052F8143
:101B40003885020F131FF80110822E96E4E00C94E2
:101B50003C0CFA01AA27283051F1203181F1E89498
:101B60006F936E7F6E5F7F4F8F4F9F4FAF4FB1E090
:101B70003ED0B4E03CD0670F781F891F9A1FA11D8B
:101B8000680F791F8A1F911DA11D6A0F711D811D8C
:101B9000911DA11D20D009F468943F912AE0269F51
:101BA00011243019305D3193DEF6CF010895462FB0
:101BB0004770405D4193B3E00FD0C9F7F6CF462F91
:101BC0004F70405D4A3318F0495D31FD40524193FA
:101BD00002D0A9F7EACFB4E0A695979587957795B7
:101BE0006795BA95C9F700976105710508959B013E
:101BF000AC010A2E06945795479537952795BA95C7
:101C0000C9F7620F731F841F951FA01D0895F894D4
:021C1000FFCF04
:061C12002566000A0D002A
:00000001FF
